:02000004901159
:105300006F0040001305000093050000930E050098
:10531000138F05009712F36F9382C27F7390523000
:10532000735000307350403017EEEE8F130E8E1D09
:1053300083A20E0023205E00938E4E00130E4E00BB
:10534000130FFFFFE346E0FF17EFEE8F130F8F1BE6
:1053500097F1EE8F9381019B17B1EE8F1301810AB4
:1053600097B2EE8F938202CA17C3EE8F130383C9DD
:1053700063886204B7D3CACA9383A3AC23A0720024
:1053800093824200E3CC62FEB7D3CCCC9383C3CCF0
:1053900097B2EE8F938202C723A0720097B2EE8F6E
:1053A0009382420623A0720097C2EE8F9382828579
:1053B00023A0720097C2EE8F9382C2A423A0720032
:1053C00097D2EE8F93820284176306001303036063
:1053D00097C3EE6F93830353638E0300032E030082
:1053E00023A0C20193824200130343009383C3FFAF
:1053F000E34670FE97C2F26F9382C251171300000A
:105400001303436B9763EF6F9383430C638E030027
:10541000032E030023A0C201938242001303430022
:105420009383C3FFE34670FE97B2F26F938282BD0F
:10543000170300001303031D93030041638E030051
:10544000032E030023A0C2019382420013034300F2
:105450009383C3FFE34670FE97B2F26F9382020D0F
:10546000170300001303035E97C3EE6F938383C09B
:10547000638E0300032E030023A0C2019382420027
:10548000130343009383C3FFE34670FE97C2F26F9A
:105490009382C21017C3F26F13034347638A6200FB
:1054A0009303000023A0720093824200E3CC62FECB
:1054B00097B2F26F938202F617B3F26F13030307EA
:1054C000638A62009303000023A07200938242006B
:1054D000E3CC62FE9782F36F9382C29217D3F36F8D
:1054E00013034395638A62009303000023A07200B4
:1054F00093824200E3CC62FEB762000073A00230E8
:105500007310300013050F0097D200009382E2BBA6
:085510006780020000000000AA
:1055180000000000CAFED00D0200000000000000DC
:1055280042303130000000000000000000000000A0
:105538000000000000000000000000000000000063
:1055480000000000000000000000000000008001D2
:10555800756E6B6E6F776E00000000000000000033
:0855680000000000000000003B
:10560000000000000000000000000000000000009A
:10561000000000000000000000000000000000008A
:10562000000000000000000000000000000000007A
:105A1000F42512903A9A040066261290F68004004B
:105A200024810400742612909E6D04006C8A040088
:105A3000AE7D0400F28604002C2712906A2C12908E
:105A40006F507076000000006F60000B00000000D7
:105A50006F50307A000000006F60A002000000006C
:105A60006F5080750000000017F310906700237CD2
:105A700017F310906700A37A17F310906700A37BC9
:105A800017F310906700E37A17F310906700A3797B
:105A900017F310906700E37817030F90670063FD1A
:105AA00017030F906700632A17030F906700A32660
:105AB0006FC0404F0000000017030F906700832560
:105AC0006FC000560000000017230F906700836826
:105AD00017230F906700C364174311906700A375E5
:105AE00017130F906700830A17230F906700E3F2E4
:105AF00017A3119067004384174311906700437107
:105B000017431190670003721743119067000372E7
:105B1000179311906700C372174311906700836C4D
:105B2000174311906700636B179311906700E35957
:105B300017931190670023591793119067004368DA
:105B4000179311906700C360179311906700437516
:105B500017230F906700836A17230F90670063670E
:105B600017230F906700C36F17230F906700A36C74
:105B7000179311906700C35C17C30E906700838B67
:105B80001793119067008354179311906700A356E1
:105B9000179311906700635217F30F906700C39437
:105BA00017F30F906700439317F30F906700439329
:105BB00017F30F906700639117E30F906700A378C6
:105BC00017E30F906700A37817E30F906700E37661
:105BD00017E30F906700A37817E30F906700C37B6C
:105BE00017F30F90670083D817F30F906700E3D582
:105BF00017F30F90670003D817F30F90670023A5E2
:105C000017F30F906700E3A76FC040340000000057
:105C100017030F90670083B717030F906700A3B7B0
:105C20006FC04033000000006FC0402C0000000037
:105C30006FC0602A000000006FC040260000000016
:105C40006FC08020000000006FC0A0220000000094
:105C50006FC0402F000000006FC0602D00000000EA
:105C60006FC040290000000017030F90670083C534
:105C70006FC0C02E0000000017030F90670043B2F2
:105C800017030F90670003A717030F90670043A83F
:105C900017030F90670023AA17330F906700C3857F
:105CA00017330F90670043831793119067000343E6
:105CB0006FB0E038000000006FB0C02D00000000A1
:105CC00017E30F906700E35F17E30F906700035B34
:105CD0006FB0807E000000006FC0600C000000000C
:105CE0006FB0307D000000006FA050350000000054
:105CF0006FA0102C000000006FA0303100000000E9
:105D00006FA0D031000000006FA0702C00000000D8
:105D10006FA0102E000000006FA0F05D00000000DA
:105D20006FB04004000000006FA09054000000001D
:105D30006FA0D03D000000006FA090740000000034
:105D400017430F906700A38317430F906700638288
:105D500017430F906700638017430F906700A3807D
:105D600017430F906700638217430F9067004383C8
:105D700017430F906700E38517430F906700A3C098
:105D800017430F906700A3B917430F90670043B8FC
:105D900017430F90670063E217430F90670023BC1F
:105DA00017430F90670083B817430F90670003BC39
:105DB00017430F906700431217430F906700630368
:105DC00017430F906700230217430F906700C3F338
:105DD00017330F906700436517330F9067004361D7
:105DE00017330F906700A36217330F906700435A71
:105DF00017330F906700236817330F90670083569F
:105E000017330F906700835017730F906700C3A07C
:105E100017730F90670023CD17530F906700437DD2
:105E200017730F906700A3CF17530F90670023FFDE
:105E300017630F906700236017730F90670043B0DC
:105E400017530F906700037617530F90670043793D
:105E500017730F906700A3AA17530F906700C3F240
:105E600017530F906700E37E17630F906700035787
:105E700017630F90670023DA17530F90670023FB17
:105E800017530F90670043F2179311906700232672
:105E90001763109067000364176310906700035E38
:105EA0001763109067002379176310906700E31061
:105EB000176310906700A330176310906700E32DFD
:105EC000176310906700830E17F310906700A3010B
:105ED00017F310906700C32E17F31090670083002C
:105EE00017F310906700430017F310906700C31278
:105EF00017F31090670063FF17F31090670003FF1C
:105F000017F310906700432E17F310906700E31B00
:105F100017F310906700A31117F31090670083190F
:105F200017F310906700630F17F310906700431783
:105F300017F310906700E32A17F3109067006321AE
:105F400017F310906700832A17F310906700C317A8
:105F500017F310906700C3F917F31090670063F907
:105F600017F310906700A3F817F310906700A32AA7
:105F700017F310906700632817F3109067006329E8
:105F800017F310906700832817F310906700033C05
:105F900017F310906700632817F310906700C3365B
:105FA00017F310906700033817F310906700A329C8
:105FB00017F310906700632917F3109067006328A8
:105FC00017F310906700A32717F310906700633C46
:105FD00017F310906700A32217F310906700232790
:105FE00017F310906700632517F310906700E32301
:105FF00017F310906700C32117F310906700632018
:1060000017F310906700432017F310906700831F69
:1060100017F310906700A31D17F310906700A31DDE
:1060200017F310906700C3E917F310906700C3E9F6
:1060300017F31090670043EA17F31090670003E925
:1060400017F31090670003E917F31090670043E916
:1060500017431190670023D817431190670023D886
:10606000174311906700C3ED174311906700C3ED0C
:10607000173311906700632A1723119067000303F9
:1060800017431190670023831733119067006374DF
:106090001743119067006380174311906700C38C0A
:1060A00017330F906700438217230F906700C37C5C
:1060B00017230F906700A37A171311906700E31B53
:1060C0001733119067008318173311906700E3119D
:1060D000173311906700E31B173311906700231AE1
:1060E000173311906700A30D170311906700634ADF
:1060F00017431190670023A317031190670003CF84
:106100001733119067006323173311906700C3257D
:10611000174311906700C38F174311906700C38D19
:10612000173311906700635C173311906700436762
:10613000173311906700A30917230F906700237688
:10614000174311906700A38417231190670063839E
:106150001713119067000317171311906700C3E11D
:1061600017131190670003D8174311906700A39687
:10617000171311906700E3E6171311906700A3400F
:10618000171311906700E3E2171311906700633350
:10619000173311906700C3591733119067004358A4
:1061A000173311906700435C173311906700035A4F
:1061B000173311906700035D173311906700230FA9
:1061C000173311906700A313172311906700C33F83
:1061D000172311906700C33F173311906700E3FD49
:1061E00017230F906700433617230F90670023355E
:1061F00017230F906700833617230F9067004335EE
:1062000017230F906700033717230F906700C335DC
:1062100017230F906700233217230F906700033175
:10622000176310906700431C6FB0F0560000000029
:10623000174311906700C3BB17431190670083C5D4
:1062400017431190670083C417431190670003C57B
:1062500017431190670043BC17431190670003C1B7
:1062600017431190670003C217431190670083BA68
:1062700017431190670023BA17431190670083BF3B
:1062800017431190670083BF17431190670083BDC8
:1062900017431190670003BC17431190670003BBBD
:1062A00017431190670003BA17431190670063B753
:1062B000174311906700E3B217431190670083BE44
:1062C00017431190670083BE174311906700E3B432
:1062D000174311906700A3B417431190670043B4AC
:1062E00017431190670003B417431190670003B47C
:1062F00017431190670063C417431190670083B37D
:1063000017431190670043C017431190670083BA89
:1063100017431190670083BA172311906700039CFD
:1063200017231190670023D017231190670043C2F1
:1063300017231190670003D5172311906700234E90
:10634000173311906700A3DF172311906700C36311
:10635000172311906700236E173311906700038590
:106360001733119067006391173311906700A3A052
:1063700017331190670003AB179311906700A3D6F2
:10638000173311906700439917F30F906700C3A16B
:1063900017F30F90670023F517F30F90670003A022
:1063A00017F30F906700439D17F30F906700839AD0
:1063B00017F30F906700839B17F30F906700439AC2
:1063C00017F30F906700839717F30F906700C39739
:1063D00017F30F906700E3F617F30F906700439BE6
:1063E00017F30F90670023B217F30F90670063B2A3
:1063F00017F30F906700A3B217F30F90670083F4B1
:1064000017F30F906700039817F30F906700E332BC
:1064100017F30F906700833017F30F906700432F37
:1064200017F30F906700433017F30F906700036B6B
:1064300017F30F906700033717F30F906700C3350A
:1064400017F30F9067008334174310906700C32E33
:106450001743109067002335174310906700634877
:10646000174310906700C368174310906700E32C30
:10647000170310906700C36117231090670003FF94
:10648000170310906700036E170310906700A37046
:10649000172310906700E3E8170310906700832923
:1064A0001703109067004347170310906700C3510C
:1064B000170310906700835717231090670003EDB0
:1064C00017231090670023E5170310906700C3D7C8
:1064D000170310906700A313172310906700C3EBF6
:1064E00017231090670083DE17A30E906700E37AEE
:1064F00017A30E906700C37E17B30E906700E38268
:1065000017B30E906700438717B30E906700E38BB5
:1065100017B30E906700C39017B30E906700C3E1E6
:106520006F401054000000006F8020220000000027
:106530006F40F054000000006F80404C00000000ED
:106540006F00D012000000006F007011000000000A
:1065500017A30E906700A33817130F906700A36767
:1065600017130F906700437317130F90670063733F
:1065700017130F906700836A17130F906700036566
:1065800017130F906700837017130F906700436F06
:1065900017130F906700236E17130F906700036D9A
:1065A00017130F906700C37117130F906700837460
:1065B000176310906700630C17230F906700A38583
:1065C00017130F906700237A179311906700C3B6D3
:1065D000173311906700E347177310906700C3A04B
:1065E00017731090670043A7177310906700839785
:1065F0001743119067002396174311906700239566
:10660000174311906700C394174311906700639478
:1066100017431190670083936F80C047000000000C
:106620006F40905400000000176310906700C39FF4
:1066300017631090670063AF176310906700E3A4BF
:1066400017631090670023B06F40F02D000000002A
:1066500017130F906700636D17931190670003AFD6
:10666000179311906700A3AC179311906700C3AD07
:106670002C0107000700170005020200FFFF0000C1
:1066800001000000010000000100281018109810FF
:1066900038101000400BC00A381298100800182754
:1066A000B81D2805C03304010808A02B04013812C6
:1066B0000800F81E04011000F81B1000000A10006A
:1066C000600AC00B1000C00B400B080058290500E1
:1066D000D4380401004006010A00000503000A0046
:1066E0000A00000500FC100732FC064C08000A00F6
:1066F000020002000A00000060EA0000140000002E
:10670000409C00000A00010001009700080A0000F8
:106710000000000060680400FFFFFFFF00000000B1
:10672000286E696C29000000286E756C6C290000C9
:10673000280000006E000000750000006C000000E2
:106740006C000000290000000000000000000000B4
:10675000C83E0300F63D030076310300B0FC149000
:10676000AAFC1490CA1E0300421F0300E82C030079
:10677000B6FC1490C8FC1490BAFC1490C0FC1490A1
:106780000100000000000000000000000000000008
:0867900000000087000000007A
:106798000001000008051390010200001E05139077
:1067A800020300002C051390030200002E0513902D
:1067B800020400002807139004050000080713903E
:1067C800050400000A0713900402000000000000FE
:1067D8000200000038051390581B0000A60E0000A8
:1067E80000000000000000000000000000000000A1
:1067F8000000000000000000000000000000000091
:106808000000000000000000000000000000000080
:106818000000000000000000AA5A0100000000006B
:106828000000000000000000000000000000000060
:106838000000000000000000000000000000000050
:106848000000000000008000000000087A0C000032
:10685800EEEF332B1D1CA2000D000000000100000C
:10686800A27C0100AD7C010001010000A27C0100B6
:10687800AD7C0100FFFFFF000000000000000000E9
:10688800FFFFFF000000000000000000C4000080BF
:1068980000500000CC000000030303003CA00100EE
:1068A80040A0010044A001007EA00100F6A0010064
:1068B80010A10100569F01005A9F01005E9F010030
:1068C800909F010008A0010022A00100D4F8040054
:1068D800C8F804007C2D1390122E1390742E139078
:1068E800402F139000180400F4170400A2A101001F
:1068F8001AA20100000000000000000000000000D3
:10690800000000000000000000000000000000007F
:1069180000000000101804000418040014A301006B
:10692800C0A3010024A40100B8A40100FFFFFFFFD9
:10693800FFFFFFFF060000001E00282300000000E4
:10694800000000000000000000000000000000003F
:10695800000000000000000000000000000000002F
:10696800000000000000000000000000000000001F
:1069780000000000B012020000000000000000004B
:1069880000000000000000000000000000000000FF
:106998000000000000000000AE120200000000002D
:1069A8000500640002056400000000002D01DD01FF
:1069B8005A02BB020A034D038703BA03E803110412
:1069C80037045A047A049804B404CE04E704FF0494
:1069D80015052A053E0552056405760587059705C0
:1069E800A705B605C505D305E105EF05FB050806AE
:1069F800140620062C06370642064D065706610681
:106A08006B0675067F06880691069A06A306AC06ED
:106A1800B406BC06C406CC06D406DC06E306EB06C0
:106A2800F206F906000707070E0715071C072207D5
:106A380029072F0735073B07410747074D07530726
:106A480059075E0764076A076F0774077A077F07A5
:106A5800840789078E07940798079D07A207A70749
:106A6800AC07B007B507BA07BE07C307C707CC0707
:106A7800D007D407D907DD07E107E507E907ED07E0
:106A8800F107F507F907FD070108050809080D08CA
:106A98001008140818081C081F08230826082A08C4
:086AA8002D08310834083808FC
:106AB00028802A8411C9EFF02FFF19C52285208074
:106AC000171313906700C35D2480B7E70400AA85FD
:106AD00003A507BB6F704052B7E70400AA8503A562
:106AE00007BB6F70A059B7E70400AA8503A507BBD1
:106AF0006F708050B7E70400AA8503A507BB6F70CD
:106B0000E057B7E70400AA8503A507BB6F70C04E26
:106B1000D5B70F00F00F8280397106CE2ED232D455
:106B200036D63AD83EDA42DC46DE09C54C102EC6CF
:106B3000EF50702DF24021618280188009C9084110
:106B4000EF50A03C3335A0003305A04014807D55A4
:106B5000F5BF188185C136863AC4AE8632C6580064
:106B6000014699452AC2EF50804B3335A0003305CA
:106B7000A04014817D55F5BF81456F5020556F5061
:106B800060411880EF5040570F00F00F14801880BC
:106B9000EF5000580F00F00F14801880EF70506F06
:106BA0000F00F00F14801880EF7010700F00F00FBE
:106BB00014801880EF50C0583335A0003305A04032
:106BC00014801880EF50405601E50F00F00F14803C
:106BD0007D55F5BF1880EF5090423335A000330546
:106BE000A04014801880EF5090523335A000330538
:106BF000A04014801880EF50304D3335A00033058D
:106C0000A04014806F5090551880FD560DC91C414E
:106C1000FD56139707014183BB790714B7E60400BB
:106C200083A606B05B97E61478273B120701FD5652
:106C300099E7EF5040583335A000B306A0403685A1
:106C40001480188011C90841FD55EF50E06D3335AF
:106C5000A0003305A04014807D55F5BF28802A840C
:106C60007D5509CCBB8205FF2E857922AA85084077
:106C7000EF50806B3335A0003305A040248001C560
:106C800008416F50C07E82801880AA877D5581CFD1
:106C9000BBF505022E85219DBE85EF50D0713335A1
:106CA000A0003305A040148028802A847D5515C497
:106CB0003B8305FF2E85EF60307DAA850840EF50AD
:106CC0003078AA871F0707070002130520FC638698
:106CD000E700B337F0003305F040248001C50841D8
:106CE0006F60C0018280788201E5814426857482CC
:106CF000B7EA04002A8403A50ABBAE899145368908
:106D0000328AEF70602FAA846DD12317010052CC14
:106D10009307F07FCA8663E527019F0600080000FD
:106D2000A9472316F1002C0093070010480036CA2B
:106D30003ECE22C44EC802C2EF60B03419C503A5CE
:106D40000ABBA685EF7080334DB792479CC079BFD0
:106D5000188011C90841A19DEF60F03D3335A000B6
:106D60003305A04014807D55F5BF6F6050576F60AC
:106D7000905801C508416F60F038828001C5084114
:106D80006F60F025828082801880EF60206BAA8778
:106D90001F07070200027D556383E7003E851480CC
:106DA0001880EF50403C01451480288019E17D5542
:106DB00024805C41EDDF1C41FDFB2A844845EF60E7
:106DC000B06C75D54844EF60306C18445040A286D2
:106DD0008945EF60402D3335A0003305A040C9BF81
:106DE000188009C90A21EF60003D3335A000330542
:106DF000A04014807D55F5BF6F6010699F0764E85F
:106E000004001B85A704184185891C43F99BCD8F7D
:106E10001CC382809F0764E804001B85A7041841F7
:106E2000C176A19D8327870CF58FCD8F2324F70C86
:106E300082809F0774E104005B95A7541C25BBF476
:106E4000071E1F07EC270400DB17F71C884F828002
:106E5000014582809F0774E104005B95A7541C25BF
:106E60000145BBF6071E19CA91CA1F07EC2704008B
:106E7000DB17F71CC84333B5A500828082809F07CB
:106E800074E104005B95A7541C291F0764E8040003
:106E90009B07F7049C4303A7070D3B7FF7088280FD
:106EA00028802A8479371F0774E10400DB17875490
:106EB00081460546D4DF94DB943B90DF7D46D0DBF2
:106EC0003B9D06028346050299E2DD46D4DB54452C
:106ED00093074005BB880601B307F402BA97094738
:106EE00098DB5445A384E704238507042384D7044F
:106EF00023A6070424803305F402FD473A955CD9A4
:106F0000D5BF688293044005B30495021F0A74E15B
:106F100004009D472EC42A8902CC02CE32C636C850
:106F20003ACA33049A005CD88D4758DC23280402FF
:106F30001CDCEF00305CAA89082893854401D295B7
:106F4000EF00B06B09C9CE854A8535201F04373163
:106F500000802285648208282C007D56EF00F0789E
:106F60002A84CE854A8511C439201F04343100801B
:106F7000CDB71120F9BF6F00305888842A8AD528F0
:106F80002A840808D52019462305C1009F0A74E108
:106F90000400252A1D47D8DB983B854694DF1DCF8A
:106FA0003B1E470298DBA384E7045844238507046B
:106FB00023A607042384E7042300C10293044005A9
:106FC000B3049A02138B440133849A00569B082819
:106FD000F92819C91F0537310080C9A898DB930724
:106FE000A1003EC836CAD9BF1C3893844404B38973
:106FF0009A00BB8707025B944A5508287D560C0807
:10700000EF00F068AA8409C91F053431008079A80F
:1070100008284D286DD17DBF954702C6A305F10014
:1070200081282A8928108920A1209D475CD88D4776
:107030001CDC85475CDC1C3804D8BB98070258452B
:107040003B0507011CD8A304F4042304F40423051E
:10705000040464C48327C9003B9707019307B10068
:107060003ED485473ED611A8614681456FF04F95C5
:107070005285C1B39547230CF1027C003ED8854769
:107080003EDAA120983BBB0B07028120882B05200C
:1070900031F17D541D28882B7D562C10EF00F064B3
:1070A00025F57D1415C4B247898BEDD78484DA8524
:1070B0006F00B0540327C900BB04F701882B1920C7
:1070C00069D509BFCE856F00B05ADB974A558280DB
:1070D0001F0535310080D9BF1F0536310080F9B753
:1070E00041117D579F0764E804009B87A7049C43D8
:1070F0007D1783A6070D83A7470E3EC4BD83858BEE
:1071000001C7BB88F701F9FE410182807882AA8914
:107110002E8A0533630A050E1F0974E10400DB178C
:1071200039551D47D8DB803B0D4798DF8546014721
:1071300098DBD4DFBB16040254453B85060180DB97
:10714000A38487042384870423850704F8C74E8516
:10715000CD31AA84614681452800EFF06F8615473E
:10716000A303E10029C8BB162402DC443B801701BD
:10717000230CE10052C8130A4005338A49038547AE
:107180004E853ECAEF001037AA8A33044901082809
:1071900093054A01CA95EF0050461DC1D6854E851C
:1071A000B1281F04373100802285748213077100D3
:1071B0003AC43EC6C1B7930771003EC48547D5BFE8
:1071C0001C38BB950702DC443B8407010828930563
:1071D0004A04CA95EF00D049DB173955882B2C009B
:1071E0007D56EF0090502A84D6854E8511C43920F3
:1071F0001F04343100804DBF11207DB76F00D02FA8
:107200001F04363100804DB71F043331008069BF41
:10721000588193044005B30495029F0974E104006A
:107220002A89338499001C403B8A2701CE85EF00D0
:10723000702A13864404938544014E96CE95B5205A
:10724000EF009036AA8459E5A3070100B52825C1AF
:107250005B9429558145912855368545B9205D3E79
:10726000A9209F0764E804009B87A7049C438545E9
:107270001304F00F03A7C70C214723A6E70C83A62E
:10728000870D23ACE70C9D3E4A85EF007026A307CF
:1072900001001D280DE17D1419CC8347F100858B79
:1072A000EDFB9F043931008031A808288280834794
:1072B000F100858BD1FF4A85EF00B0235B952955FE
:1072C00085471CC1268554819305F1004A853DBD43
:1072D0008144CDBF9F0438310080EDB718819305FC
:1072E000F100A30701001D3509E50345F1000589FB
:1072F00014810545F5BFD8832A8D2E8CB284B68AB9
:10730000913EAA8D630B051C6A85EF00B01E9307A2
:107310004005B307FD029F0B74E104002AC4814CB1
:1073200013874701938747045E97DE973AC83ECAA2
:107330009377FC0F3387FA00568B9306F00F63F6B2
:10734000E600130B0010330BFB40B38A6A41812A1D
:1073500013743C0019E0BB7B0B04B9229147818F69
:107360009379CCFF819F5A89630C09001818B306E2
:10737000F7409820FD17819F98A27D198504EDF7AD
:107380006EC221A05A89E28902C2B2573ECE012ABA
:107390001374390002C601C8012A019C33098940CF
:1073A000631B04106EC6B2576A853ECCF9362A8438
:1073B000631405126A85B53C2A8AA1227D47D8DB71
:1073C000054798DF983BC0DF80DBBB1C07025845B0
:1073D0003B0B070119472385E7040347050201C753
:1073E00021472385E704312A094798DBA384E70472
:1073F0000327CA0023A607042384E7045B94AB5544
:10740000C2450828EF00701F61E91C38BB803702B5
:107410005B97AB551F0464E804001C2BF928143B50
:10742000BB9F26020326CA00BB0D2601D4D71C2B06
:10743000E92023A63703924789C75D2872475D2854
:10744000D8D7630B09026D206D28982B93F7340071
:10745000C1CFBC209430C2079B87D7109420B69729
:10746000B4309B87D7301B07E404184371195CD7ED
:10747000631E0906639C0A06B24789C795286247BE
:107480009528D8D7BD28882BA1396A85813D75FDFF
:107490005A9CDA9CE39E0AE885286685D48302D646
:1074A000FD572306F102828091461306F00FB68540
:1074B00068106FA0BFEC7D14019C1C1833878700F7
:1074C000B3872401A2979C23230EF7FED1BDD2459A
:1074D0000828EF00F0190DDD0528814C7DBF370726
:1074E0000002B3E9E900B1B79C40B5BF910491BF78
:1074F0006A8571B2DB97AB559C2B9B07F4049C43C8
:107500008280DB97AB558280A2456A856F00C07E82
:10751000D882AA8BAE8A328C368D2D3A6303051041
:1075200013F43A0075C0019CB309A40193FACAFF91
:1075300093F73900814489C791449D8C819CA69919
:107540005E85EF00207B93074005B387FB029F0D0C
:1075500074E1040093D92900AA8C9385470193878D
:1075600047043387BD00EE973AC43EC65E85D130EE
:10757000DB977D550D4798DF7D47D8DB2A8B4E8AF8
:10758000BBE10909214ADB977D55983BB389494105
:10759000BB1F170298DBA384E70421472385E70478
:1075A0000327CB012384E70471203827F8C75B99B0
:1075B0007D55A24503450901232E4903EF00F00341
:1075C00025E183471901BB831702DB977D55982B73
:1075D000943B9F0564E804001B87E50418433B992E
:1075E000160203460B029306B00E54D70DCE552853
:1075F00023A657039B8A4A058146631A0A04E39728
:1076000009F6E1286A85D482EA89014415B723A8DE
:10761000070271BFB24503450901EF00700555D55A
:107620006D280145CDB7392018371B2757119528EC
:10763000D8D7C9B798279F06EC2704005B97E61CAC
:107640008280B7070003B3E7FA005CD765B78128EB
:1076500003A7C70D3307EA406304470163160A0016
:1076600085063B96E6FF6DBF1D28639B09061DCC72
:10767000DC57E2863ECE8147101022960346C6FFB5
:1076800085060504A38FC6FE85071376F40F819F38
:107690003B1AF6043E9C7D1A8146014475BFDB9778
:1076A0007D559C2B9B87F5049C438280BB1D0A0162
:1076B0008DC8DC5701463ECE9377F60F3B9204040B
:1076C0008144C9BF1C10B29783C7C7FFB306CC0063
:1076D00085049CA2819C0506C5B7E6855E8529AD1B
:1076E00041F8DC572320FC0091476DB7D8802A8BE6
:1076F000AE89328CB68AEFF0CFF32A89630F05107A
:107700001304400533048B029F0C74E104001F072F
:10771000EC270400B3878C009C27DB17F71CDC43A5
:1077200063ED370F5A85F92393054401130444048C
:107730004E9CAA8D338DBC00B38B8C0063E5890110
:10774000D128014589A0139A0901135A0A01A1679A
:107750006308FA0063090A0013040002056A21A8FD
:107760002520637AFC00C167CE976374FC02216A0E
:107770002128E363FCFE5A85EFF03F8019CD59289C
:107780001F0534310080D480B387490113042005DC
:1077900082801304800D416AF9BF5A85EFF04FF0E3
:1077A000DB946C558828EA85892D11C5A5201F0515
:1077B00037310080C9BF9C38BB9407028327C900BA
:1077C000BB8207018828DE8565259F0564E80400E3
:1077D0005B976C553D20143B3B9D06028326C900F8
:1077E0003B8B0601C0D7312823A63703DB976C55A6
:1077F000882BFD3063850A005A85CD3475FDD299FA
:1078000035BF1C2B9B87F5049C4382801BA48930C9
:10781000C0D7E9BFEE855A85C5A11F053331008069
:107820009DB7A8802A8BAE84B28AEFF08FE02A89B8
:1078300071C5930B4005B30B7B039F0974E10400F2
:107840001F07EC270400338479011C24DB17F71C85
:10785000DC4363E5970A5A8571292A8C5A85EFF033
:10786000CFF119C541201F0A343100805285A48010
:107870005A85EFF0EFE2082893854B01CE95B52BA2
:107880002A8A11C585201F0A37310080C5B71C38E8
:107890003B9607028327C9003B840701082893858C
:1078A0004B04CE95F12379FD1F0664E804005B9735
:1078B00069552528143BBB9F06028326C900BB8D52
:1078C000060193060002D4D70D20C4D7DB97695573
:1078D000882BEFF0FF8063850A005A85013475FD1F
:1078E000112069B7E2855A8501A91C2B9B07F60474
:1078F0009C43828037070020D98CC1BF1F0A3331D7
:107900000080ADB79F06EC27040081479842631AB8
:10791000B7001F0774E104005B15A7541CA50145BF
:1079200082808507819FF1063B99F71E1F05333141
:107930000080828038819307F0F9A305F1002316B7
:10794000010023070100AA8489E51F053331008067
:1079500034812E840D47740005469305B100EFF085
:107960004FDA05E18345E1008347D1002685C20552
:107970009B85F5108347C100BE950CC0613769D95E
:10798000E9B71F0534310080E1B70000C2281600B6
:1079900000004000A5AA042BB0300000C82200203F
:1079A00000000000A4220020C22817000000800070
:1079B000A5AA042BB0300000C8220020000000005F
:1079C000A4220020C225370000008000A5AA042BB5
:1079D000B0300000482300200000000024230020D5
:1079E000C225380000000001A5AA042BB030000019
:1079F000482300200000000024230020EF60160030
:107A00000000400020FF0405757A000030240020AB
:107A1000000000000C240020EF6017000000800030
:107A200020FF0435757A000030240020000000009B
:107A30000C240020EF6018000000000120FF040566
:107A4000757A000030240020000000000C24002083
:107A5000EF8018000000000120FF0405757A000087
:107A600030240020000000000C240020EF601900EA
:107A70000000000220FF0205757A0000CC230020E0
:107A800000000000A823002020BB18000000000117
:107A900000100270757A00008C210020C0210020A7
:107AA0006821002020BB19000000000200100470B3
:107AB000757A00000022002040220020DC210020F6
:107AC000C86517000000800020000405757A0000DA
:107AD0004C2100200000000028210020C860170071
:107AE0000000800020000405757A00004C21002071
:107AF000000000003C200020C860180000000001C9
:107B000020000405757A00006020002000000000BD
:107B100004210020C86019000000000220000405B4
:107B2000757A0000A82000200000000084200020BA
:107B3000F843170000008000A0000235757A0000AD
:107B40001820002000000000F41F0020C86016006C
:107B50000000400020000405757A0000E0200020AD
:107B60000000000004210020F8421800000000017D
:107B7000A0000235757A00001820002000000000E7
:107B8000D01F0020856016000000000220FF0405C1
:107B9000757A00007C23002000000000582300209C
:107BA0001F42180000000001A0000235757A000095
:107BB000641F002000000000401F0020C225360086
:107BC00000004000A5AA042BB030000008230020CC
:107BD00000000000E42200203825C200000000015F
:107BE000A5AA042BB03000004823002000000000AC
:107BF000242300201C781800000000012000040548
:107C0000757A000088220020000000006422002015
:107C1000E54218000000000120FF0405757A00000D
:107C2000AC1F002000000000881F00201C38160038
:107C30000000400020000405757A00008822002022
:107C400000000000642200200B601700000080008C
:107C500020000635757A0000802400200000000016
:107C60005C2400200B601800000000012000063595
:107C7000757A000080240020000000005C240020B1
:107C8000856017000000800020FF0405757A000061
:107C90007C2300200000000058230020C22539006A
:107CA00000000002A5AA042BB030000048230020E9
:107CB0000000000024230020C228140000008000DF
:107CC000A5AA042BB0300000C8220020000000004C
:107CD000A4220020188013064005B307C50233858F
:107CE000F5009F05942B0400BE95EFE06FCC148047
:107CF000828082806FE07FEA2E856FE0DFEA0DE907
:107D0000188089452D450D20914509453128854527
:107D10000D4519288D452545012885450D451080BF
:107D200017030E906700833B17030E906700E32B49
:107D30008280000000000000000000001E00000023
:107D40000000000000000000000000000100000032
:107D50000048E801040000000000000000000000EE
:107D6000000000000000000007000000000000000C
:107D70000000000000000000000000000000000003
:107D8000000000000000000018809F07D8E10400F8
:107D90009C431F0600D4300095459C4B829701C53B
:107DA0001F0533130080148058802A89BB71150386
:107DB000A9C11F04DCE104002A941C20014785EBC3
:107DC000AE848545B289EF00D024EF00301B4A8590
:107DD000C92A9F07D8E1040088C31C4181464E860A
:107DE000A6854A8582972A8719E185471CA03A858E
:107DF00054801F0701000080DDBF2E863B75050300
:107E000081C99F07D8E104009C4381459C4B828730
:107E10001F050100008082802E863B75050381C905
:107E20009F07D8E104009C4385459C4B82871F0532
:107E300001000080828038832A84AE84EF007019AC
:107E400005E51306000381450A85EFE06FB78A85D3
:107E50002285D937814711E1925701456399F40092
:107E60001F053E13008021A01F05321300803483BC
:107E70002E863B75050381C99F07D8E104009C430A
:107E800089459C4B82871F050100008082806880A5
:107E9000AA892E89B28411E2FD543BF01903630EC6
:107EA000090289454E85413F2A8415E54E85E93D05
:107EB0000DE94E85EF0050159F07D8E104009C4363
:107EC0002A8ACA859C4726864E8582972A84D2852F
:107ED0004E85EF00B013228564801F0401000080EE
:107EE000DDBF1F0433130080FDB76880AA892E848C
:107EF000328911E27D59BBF3190329C41C44B9C36B
:107F00005C44A9C385454E853D37AA8415E54E8559
:107F1000A53D0DED4E85EF00300F9F04D8E1040024
:107F20009C402A8A9C4719289C40DC470128AA8447
:107F3000D2854E85EF00900D268564804A86A28505
:107F40004E8582879F0401000080FDB79F04331394
:107F50000080DDB748809F0464E804000144137981
:107F6000F40F112801CD012888C0050491043B1CA1
:107F7000F403014544804A856F0090021F054310B9
:107F80000080CDBFBB75050389C99F0758E8040071
:107F90001B85A7040CC1014582801F0501000080DC
:107FA0008280BB7405039F0758E804001B85A70463
:107FB00008418280014582809F0764E804001B8598
:107FC000A7041841C176A19D1C47F58FCD8F1CC712
:107FD00082809F0764E804001B85A70418418589F7
:107FE0001C4BED9B9BA5B7040CCB82809F0764E8DC
:107FF00004009B87A7049C43DC43D1838D8B3B9477
:1080000007039F0770E804005B95A7305C2D3E8551
:10801000828038812E848145AA84EFE03FDE9F076D
:1080200064E804009B8797049C431820D4470D8B79
:1080300093F6F6F91BA7E60AA1201430D847757607
:108040007D168D8A718F1B27D7181D283420D8479D
:108050000556BD8A1B47C7F21B27D7101520D447EA
:10806000584036C4BB6107207D479376F70122470D
:10807000019B558F31208545268530816FE01FD8C3
:108080003AC4D8C7828018808145EFE03FD70145C8
:1080900014809F07AC3504009B87B7049C438287FC
:1080A000188011CEB287C1461F0600E904001B06E6
:1080B000A608B6853E85EFA09FB3014514801F0535
:1080C00001000080E5BF3880AA840DC63284393FA4
:1080D0003B1B0502930544002685253FC1461F052D
:1080E00000E904002286B6851B059508EFA03FB085
:1080F000014534801F0501000080E5BF1F053213D4
:108100000080C5BF188005C2930600033305D50261
:10811000B2871F0670E80400B6852A963E85EFA058
:108120001FAD014514801F0501000080E5BFB88127
:108130002A8BAE84B28C80419F0B64E80400131C30
:1081400025007D28DC43B583FD8B13891700793D1D
:1081500083A94400135939002A8AB3FA2903639486
:108160000A0C9F0770E80400DB9767319C4F3B992E
:10817000070281459928DC44A1C79C44B1C38145CD
:108180009920CC445A85B3D52503FD153535854551
:108190002D285A853D2D15E1BB180A029520D84798
:1081A0003AC431830D8B19C39828D8D7D8473AC41D
:1081B00021833D8B19C3D848D8D719E80145B4812C
:1081C00085451120E9B75A8529B55A856FE01FC347
:1081D000B3D62903E5D62D2003A7470E3AC41316BC
:1081E000470163580600BB1809011820D8D74A94E4
:1081F000FD16850AE3F05CFF1F0533130080C1B74D
:10820000B3878B019C438280631D0A0018301020C5
:1082100042071B07C7303030329730201B07C7108A
:10822000F1B71840E1B71F053813008049BF41116D
:1082300001479F0764E804009B87A7049C4383A62B
:10824000470E36C49395360163DC050083A7470EBD
:108250003EC49396070163C5060001454101828033
:108260000507E378E6FC1F0533130080C5BF411105
:108270009F0764E804009B87A70498438327470E61
:108280003EC493963701E3D506FE8327470E3EC4CE
:108290009183858BF1FF8327470E3EC49396070198
:1082A000E3C806FC8327870C93160601C175C182BB
:1082B000ED8FD58F2324F70C9F0770E804005B95A2
:1082C000A730050650C1014541018280D881AA8DA1
:1082D0002E89B28403AA85001F0C64E80400931C55
:1082E00025006D20DC433D4DB583FD8B13841700C5
:1082F000F539935934002A8B0324C90091C0268D87
:10830000B37A3403638C0A0A1F0538130080B5A8BA
:10831000B30B9C0183A70B0083A7470E3EC4958334
:10832000858BBB8927018DEC952003A7C70D3307EB
:10833000E440630DE40091E0814A8928DC57BB9555
:1083400019012300FA007D144E9A65F4850A6379B9
:108350005D078DE83304340323268900014535A0E9
:108360006E85852971F103A70B005C43C9838D8B52
:108370003B9EE70223260702C1678326C70DCDF681
:10838000FD17E5FF1F0533130080D481B3079C015F
:108390009C43828063110B0293D687012300DA008D
:1083A00093D60701A300DA0093D687002301DA00F1
:1083B000A301FA0049BF2320FA0071B733543403F4
:1083C00021F80145D1D8D1B71F053413008075BFFE
:1083D0003BF605036F0380029D568D899BC7D7DE50
:1083E0009BA7B7285CC38280F515819DBBFEF50372
:1083F0006F03C000B7063000D58FEDB79F0764E864
:1084000004001B85A70418415C43028358802A8915
:108410006309061081453284EFE05F9E4C2C4A854B
:108420009F0464E804006D3793192900544833868B
:108430003401C520DD9B9BA7D7065CC31448D12817
:10844000BD9B9BA7D7085CC31842145001565C43E0
:10845000FD8A9BC7C7E69BA7D71A5CC31C4CBB937E
:1084600007024C50BB9D25014A85A536B3873401D0
:10847000984354501D565C438D8A9BC7C7E29BA707
:10848000D7245CC30C54C1CDFD154A8535361C205C
:10849000B1E75C4089C7FD170547B317F70033877D
:1084A0003401184393960701C1750326870CC182D6
:1084B0006D8ED18E2324D70C54441F0640420F00EA
:1084C0005C4B3386C6021444B3D6C6022E86BBF17B
:1084D00006028946A19EF18FD58F5CCBB38734010C
:1084E000545498430528ED9B9BA7D7044A855CC349
:1084F0008545EFE0BF90930600033309D9021F05BD
:1085000070E804002286B6854A95EFA04FEE01453B
:10851000548018425C43858A82808145B1B7814589
:10852000ADB71F0501000080E5B78880AA8A2E84B8
:1085300032890D34AA89631305201C20854591E3F7
:1085400081455685BD2483470402BB840707BB834E
:10855000071F9F09301300804E858480442C3BFD0B
:10856000F4063B920402E30609FE1C2CBBF9F70358
:1085700083474402BBF7F7041C283BF6F7025C284C
:10858000BBF4F7028347C402BBF2F7021C206382EC
:10859000071881454D221F0A64E80400139B2A0036
:1085A000B3046A019C40568523A207009C4023A681
:1085B00007004C2C313D144C912A1D568D8A9BC7C7
:1085C000C7DA9BA7D72C5CC354488922858ADD9BD8
:1085D0009BA7D7065CC31448152A858ABD9B9BA719
:1085E000D7085CC314501D220156FD8A9BC7C7E6FD
:1085F0009BA7D71A5CC39C401850D4433D8B93F67D
:10860000F6E11BA7E60AD8C3545009221D568D8AED
:108610009BC7C7E29BA7D7245CC31C4CBB93070234
:108620004C503B92050156856D32B3076A01984361
:108630008327C70CD9472326F70C8326870D232CC5
:10864000F70C1C20A5EF5C40014689C7FD170546C5
:108650003316F6008326870C931706014176C183F3
:10866000F18EDD8E2324D70C54449F0540420F0029
:108670005C4BB385B6021444B3D6B602BBF1060216
:108680008946A19EF18FD58F5CCB5C2C3B93070272
:10869000930549005685B53A1C2C3B960702854543
:1086A0005685912233076A018327C900184323287E
:1086B000F70E0C54BDCDFD155685FD38B3076A0184
:1086C0009843545485455C43858AED9B9BA7D7040A
:1086D0005CC3952081455685712019C12320050072
:1086E000930600033385DA029F0770E804002286B0
:1086F0003E9511281F0500E90400C1464A861B0566
:108700005509112091BDB6856FA06FCE98405C438E
:108710008280032A4400568559280505E36B45E30A
:108720005C44FD1781E43BEB973025B5BBE99760CE
:108730000DB5814551B756856FE04FEC9F09311358
:10874000008019BD1F055425002082806C32040072
:10875000642F0400262F0400002F0400CE300400F4
:108760008E30040091E99F0764E804001B85A7048C
:1087700008411305450C8280014582801880052040
:10878000AA850145EFF01F801928AA850545EFF05D
:108790006FFF3120AA85094510806FF0AFFE5DB7ED
:1087A0009F07D02500201B85A7040841828005452E
:1087B00082808547370700523395A7008327877249
:1087C00089E55D8D2324A77282801345F5FF7D8D99
:1087D000D5BFB707005283A7877233D5A7001345CB
:1087E000F5FF0589828085471105370700523395CB
:1087F000A7008327877289C55D8D2324A772828095
:108800001345F5FF7D8DD5BF6FE02FB92E856FE045
:108810008FB938803B0305010DC53B090502348043
:10882000C94413B41500050497300E90E78060B773
:10883000A6852285308017330E906700A3B3CD4400
:10884000CDB7C544F9BF5C459B85B70498411C4929
:10885000937677001B86C7041C42BB9B06019D8B49
:108860003B9A07019F0758E70400D8C31842D8C7AE
:10887000584998CB584198C31845BB65070298A73B
:10888000184D0145D8CB82801F0546130080828099
:108890001F054913008082809F077CE704009C230A
:1088A00099CF9F0758E704009C433307B50063EC5A
:1088B000E700637AE5006368B700014582801F0521
:1088C0004013008082801F05010000808280788133
:1088D0009F047CE704009C20D9E7B1462A86B68530
:1088E0002A841F0570E70400EFA06FB0EF00B01AF4
:1088F0006800CD2E49E5B24A0349040083491400BB
:10890000EF0040772A8AEF008077AA86D287014756
:10891000639DE604EF004077054681452D3725E14C
:108920001F077DE7040085471CA34C40B717009044
:1089300063EAF5041F0558E704001C44104163F383
:10894000C7003E869387F5FFB2973707809063FB99
:10895000E70210C1E12E05E585479CA09F077DE752
:1089600004009C2385E7014519A83E85F10703A66D
:1089700047FE6397CA004E86CA85F1355DD574817E
:10898000050779B71F0542130080D5BF1F054113A6
:108990000080F5B798802E8BB285AA8A3284ED3D8F
:1089A000AA8915E59374F403EF00B010198005044B
:1089B000AA8B014A8DC09F0758E70400D44326863E
:1089C000DA855685E92E2A8909C52928CA894E855E
:1089D0009480A69A269B050A93040004E36D8AFC02
:1089E0001120F5B75E856F00100F98802E8BB28531
:1089F0002A8A32845535AA8431E99377FA0313071A
:108A00000004B307F740A28963F38700BE89EF0033
:108A1000500AAA8B1F0958E704004E861528AA841D
:108A200011C5112025A05E856F00F00A3304344182
:108A30004E9B4E9A7DD4A28A3B620441930A000465
:108A400056863920AA8911C9F93FCE84268594809B
:108A50008326C900DA855285DDA6569B569A3304D3
:108A60005441C9BF8880AA842E843D3515E92694D7
:108A7000FD7713174401B3F9F40059C7E18F056777
:108A8000BA971F0501000080639C3401631AF4004B
:108A9000330434418144814A014A2DE001494A8529
:108AA00084809C4B9B87D704844393DAE400568AE6
:108AB000636754019387FAFFB3F7370191CB8506BB
:108AC0009F0758E704009827E3EDE6FC638AE60277
:108AD000EF00207E9167FD17FD8C9BA4541D2A8B0F
:108AE0000146A6854E8501212A895A85EF00A07E80
:108AF000E31709FA33044441D29945B78546C9B70B
:108B00001F094713008061BFE38434F91F0501008A
:108B1000008079B718801921014514809F0758E714
:108B20000400C84B39A9B7070090138707109F06A8
:108B3000C4E9040098C2138707209F06B8E904001F
:108B400098C2138707249F06B4E9040098C21387CC
:108B500007309F06C0E9040098C2938707401F07AB
:108B6000BCE904001CC301458280B7F7040003A7D9
:108B7000079C9D561B45D5CA5C47B70600C0F58FBC
:108B8000C98F5CC782804882EF00A06FAA84EF0083
:108B9000E06FD2470D572A8993F7778093E78702D2
:108BA0009BC7E7EE3ECA85473ECC02CE0144314624
:108BB0004C080A85EFD0CFDF0A85F92685450146A6
:108BC0002E8501213521B7F7040083A7C79B9C435D
:108BD000858B91CF4A85EF001004930714006366DC
:108BE00094001F054413008044823E84C9B70145A8
:108BF000E5BF48829C212A892E848E0793E71700BF
:108C00003ECA9307F5FF3ECC02CEB53FAA8415E9D4
:108C100031464C080A85EFD0AFD90A85B5260547FD
:108C200002C863622703B7F7040003A7C79BC247C4
:108C30009335290001461CC393C5150001455126F3
:108C4000452E268544821C10B386E700B307E40056
:108C50009C230507A387F6FEE9B758822A8419E00A
:108C600001450DA004203B88040181C80145BB8556
:108C700004021F054513008031A00830930524002D
:108C80008D3F21C554823C20034934008349440070
:108C90008E0793E717003ECA26CC02CEED3531464B
:108CA0004C080A85EFD0CFD00A85F92C0146A6855D
:108CB0002685012E352EB7F7040083A7C79B9C435A
:108CC000B3D72701858BE39637FB190449BF188179
:108CD0005D3D99476C0005452306F100193F11E100
:108CE0005D35148128822A843D3D713D1DED9F052F
:108CF000DC3D040048083D204C080A8525200A85F3
:108D00006124854501462E856D2CDD24B7F70400CE
:108D100083A7C79B130700F09C439BC7E7D01CC0E9
:108D2000208295B531466FD0AFC824825880C16784
:108D30002A84AE84B2896360F6064849393F2A899D
:108D400029E5B7F7040083A7879BC1808146984F28
:108D5000219F1B27972098CF13F719000DCB984B15
:108D60000556C516BD8A1B47C7F21B27D71098CBDF
:108D70004840792448449377857F91C3C124B7F74D
:108D8000040083A7479C054798CB4A85548093D914
:108D900019008506D1B71F0901000080FDB768865C
:108DA00013DAE600BB742641B6843284AE892A8980
:108DB000D93B2DE931464C080A8526CA22CC52CE31
:108DC000EFD00FBF0A85C9224A8545330546B285D3
:108DD0003285C52A312C1306000481450810EFD0D6
:108DE0002FBEB7F7040003A5C79B935624001308B2
:108DF000010201476319D7029377340091CB93178F
:108E000027003307F50018439410B69723A0E7FC1A
:108E1000A2861010A2854E85EF907FDD3335A0002D
:108E20003305A04064869B07E5049C4305071108B1
:108E3000232EF8FEC1B71F0501000080E5B7688644
:108E400013DAE600BB762641B6843284AE892A89DD
:108E5000BD3DAA8725E931464C080A8526CA22CCA1
:108E600052CEEFD0EFB40A8505224A85FD3993042E
:108E70000004268681450810EFD08FB4A2864E8666
:108E8000A6850810EF90BFD6FD570DED9355240031
:108E900014100147631AB7021376340009CE9317F2
:108EA0002700B7F6040098103E9783A6C69B0327B9
:108EB00007FCB69798C30546B285014519220D2ACD
:108EC000D931AA873E85648637F604000326C69BFF
:108ED0009C4291061B06E6041CC2050765BF9F075E
:108EE00001000080C5B74882AA842E843289C53328
:108EF0000DE54C0831460A8522CA02CC02CEEFD0DD
:108F00002FAB0A85512026858D31134619008145E6
:108F100001454528F1284082BDB14482B7F70400DD
:108F200083A7879B1F07C8E904000145944314C326
:108F3000D44354C3944B14C7D44B9C4F54C71CCB3D
:108F400082801880193B9F07C8E9040037F60400A7
:108F500098438326869B98C20327869BD44354C399
:108F6000944714CBD4479C4B54CB1CCFB7F7040089
:108F700083A7479C054798CB14800000F9040000A4
:108F80000300000000000000B7F7040003A6079CE0
:108F90001C41144613D737009375F70F13F706F0EB
:108FA0004D8F14454C41AD839D8B9D8AC607FD15A1
:108FB00093F5F5039BA7D7089BA7B71218C61CC249
:108FC0008280B7F7040003A7079C058985891C43A5
:108FD000058A93F7F7EF9BA7A71093F7F7F79BA5E1
:108FE000B70EDD999BA5C50613E6350010C3828038
:108FF000B7F7040003A7079C1C43858BF5FF82800D
:10900000B7F7040003A6879B37070080930600F09C
:109010001C42D98F13573500019F9BC7D7F09BA7E0
:10902000E7109356B5009D8A2D8193F707FC1377BF
:10903000850333E5D700598D08C28280B7F7040055
:1090400003A6879B930600F0935735001842819F33
:109050001B47D7D41B27F72C9357B50013F5770080
:109060008D579B47F7E49BA7A72037070040D98F70
:109070001CC282809F07E0250020884382809F07D2
:10908000DC250020882382801F05A8400400828000
:1090900039C6FFFFC10600400101000402000000C4
:1090A0000000000019000000010000001100000095
:1090B000000106000000010305000000020000009E
:1090C0000000000039C6FFFFC106004091020020E9
:1090D000010100041900000059400000D9490000B6
:1090E000D9550000596B000059F70000010000003D
:1090F0001100000000400000004000009129000025
:10910000004000001900000059400000D94900004B
:10911000D955000000400000004000001900000088
:1091200059400000D9490000004000000040000004
:1091300000400000000106000000010305000000DF
:10914000000301000200020000000000EF601600B2
:109150000000400004000000343F04004C3F0400C5
:10916000243F0400C4400400EF60170000008000AA
:1091700004000000343F04004C3F0400243F04007E
:10918000C4400400EF601300000008000400000069
:10919000343F04004C3F0400243F0400C44004005A
:1091A000EF6014000000100004000000343F0400D1
:1091B0004C3F0400243F0400C4400400C860130076
:1091C0000000080004000000343F04004C3F04008D
:1091D000243F0400943F0400C8641300000008000A
:1091E000040000007C3F04004C3F0400243F0400C6
:1091F000103F0400C86014000000100004000000CC
:10920000343F04004C3F0400243F0400943F04001A
:109210001C3814000000100004000000643F04002B
:109220004C3F0400243F0400103F040085601400FC
:109230000000100004000000343F04004C3F040014
:10924000243F0400103F0400FFFFFF00000008005F
:1092500003000000043F0400083F0400F03E040047
:10926000FC3E040000010600000000023102000084
:1092700001030500000001033501010002000000A8
:1092800000009F07E8250020884382809F07E4258F
:1092900000208843828028801F04E4E904001C2009
:1092A00081EB1F05E0E90400EFD01F9685471CA065
:1092B000248018809F07E4E904009C2399CBEFD019
:1092C0001F8C01E9FD551F05E0E9040010806FD0F7
:1092D000FF980145148018809F07E4E904009C234F
:1092E00091CBEFD0DF8919E51F05E0E9040010807C
:1092F0006FD0FF9814804880EFD03F8A1F04F0E1C0
:1093000004001C202A8991C7EFD0FF89814426855B
:109310004480592AAA8409C54A85EFD0DF88C5BF91
:1093200085471CA0D5BF4880EFD03F871F04F0E1E0
:1093300004001C202A8991E7EFD0FF86814426850E
:109340004480492AAA844A8523000400EFD0BF85BF
:10935000FDB74880EFD07F849F07F0E104009C2395
:109360002A8991E7EFD03F84014581454480BD22A1
:109370002A844A85AE84EFD01F839F07F8E104005A
:109380008843DC43229533348500B385F400A295ED
:10939000F1BF38807D3F2A84AE84752A1306803E53
:1093A0003306C50281462285A685EFC0EFB2348020
:1093B000388045372A84AE84792A2A8681462285D8
:1093C000A685EFC06FB1348048809F07F0E10400AC
:1093D0009C23A1C32A8441229307803EB305F40253
:1093E0003334F402B384A5023304A402B3B5A50256
:1093F0002E9485373389A400B3349900A295AE9496
:10940000893FE3EF95FE6394B400E36B25FF0145CC
:1094100044807D55F5BF48809F07F0E104009C2300
:109420009DC72A840D2AB304A4023334A40215373D
:109430003389A400B33499002E942694193FE3EFA6
:1094400085FE6314B400E36B25FF014544807D5520
:10945000F5BF28802A84F53D9F0700E2040088C3F9
:10946000CCC319C008C04CC00145248038800441D9
:109470004041D520B30595029F0600E204009842C2
:10948000DC421F06F8E10400B3349502B306B700CE
:1094900033B7E60014C23304A4022694A297BA9705
:1094A0005CC25135308081BD1880B92805E1B7F61E
:1094B000040003A746931C4393E747001CC303A77C
:1094C00046931C4393E727001CC314801F0580119B
:1094D0000080E5BF1880B92001451480B7F604006C
:1094E00003A746931C4393E717001CC37D5783A72C
:1094F00046939C439183858BBB8307017D1765FB56
:109500000145814582802DA01880912001C98120CC
:109510009F0734E9040088C3014514801F058011AA
:109520000080E5BF9F0734E9040023A00700828084
:109530009F0734E904009C438C4BD8478847DC43A1
:10954000219F9B25B720A19F1BA5A72082801F05D7
:109550000002005782809F07C02500208843828038
:109560003880EFD08FE31F04DFE104001C20AA84C1
:1095700081C730806FD02FE3992A85471CA02685AC
:10958000CDBF3880EFD06FE11F04DFE104001C2065
:10959000AA8481E730806FD00FE11D2A2685230041
:1095A0000400CDBF3880EFD04FDF9F07DFE104001C
:1095B0009C23AA8481EBEFD00FDF1F046011008091
:1095C0002285348039222A842685EFD0CFDDCDBF95
:1095D0004880EFD08FDC9F07DFE104009C232A89BD
:1095E00091E7EFD04FDC014581454480212A2A8450
:1095F0004A85AE84EFD02FDB9F07E0E1040088436B
:10960000DC43229533348500B385F400A295F1BF85
:1096100018807D3F3D811B25B522BD8114801880B7
:10962000453F1307803EB307E5023335E502B385B6
:10963000E502AA9513D5F7001B25B522BD8114803C
:10964000188079371F0740420F00B307E502333512
:10965000E502B385E502AA9513D5F7001B25B522CF
:10966000BD81148048802A89A5372A84AE84EFD032
:10967000CFD29F07E8E1040080C3C4C3EFD0AFD2CC
:1096800063060900232089002322990001454480B4
:109690004880004103294500ED35D9352137AA849A
:1096A0000DE5EFD08FCF1F07E8E104001C435043C6
:1096B0009F06E0E1040033878700B337F7004A963E
:1096C000B29798C2DCC2EFD00FCE2685448025A881
:1096D00091A0B7F6040003A706931C4393E7270065
:1096E0001CC341677D1783A706939C439183858B99
:1096F0003B8407017D1765FB1F0561110080828097
:109700000145828031A8188091209F0730E904002C
:1097100088C314809F0730E9040023A007008280DB
:109720009F0630E904009C4298431367170098C3D2
:109730009C42799B8C4BD4478847D043A19E98C3C9
:10974000219E1B25A6209BA5B62082801F0530C325
:10975000025782801883130600039F057C4604008D
:109760000A85EFC0FFA40A85EF10C013EF10A00414
:10977000C5299F07F447040001464128BB1FF63066
:109780009F07AC46040001464920BB1FF629B717C6
:109790000057239007A0B707005223980718239A71
:1097A0000718B7170052239607A2239807A2239AF7
:1097B00007A211472392E7BA239807BA239A07BA58
:1097C000239C07BAD1239F05582600201D45A120C0
:1097D0009F054826002019453D289F052826002082
:1097E000154515289F051826002011452D209F0599
:1097F000082600200D4505209F0538260020094534
:1098000019280545EF00D07C14839843D62305061C
:10981000A10716A382806F0070550000C24A0400A1
:10982000D84A0400AA4B0400E24B0400C24B0400D7
:10983000E44B0400364C0400E64B0400AC4C04003E
:10984000CC4B0400D84C0400244D0400E4C0025763
:109850000F000000A8C102570F000000ACC1025762
:109860000E000000B0C102570D000000B4C1025745
:109870000D000000C0C002570D000000C4C0025718
:109880000C000000C8C002570B000000D0C00257F7
:109890000C000000B8C1025708000000BCC102570C
:1098A00008000000D4C0025702000000D8C00257D0
:1098B00002000000DCC0025701000000E0C00257B7
:1098C00001000000ECC0025701000000A042005758
:1098D00003000000A442005703000000A842005704
:1098E00003000000AC42005702000000B0420057E5
:1098F00003000000B442005703000000B8420057C4
:1099000003000000C442005703000000C842005793
:1099100002000000D042005702000000D44200576D
:1099200002000000D842005702000000DC4200574D
:1099300002000000E842005702000000EC4200571D
:1099400002000000F842005702000000FC420057ED
:1099500002000000004300570200000004430057CB
:109960000200000008430057020000000C430057AB
:10997000020000001043005701000000144300578C
:109980000100000018430057010000001C4300576D
:10999000010000004CC102570100000054C10257F1
:1099A0000100000098C10257010000009CC102574D
:1099B0000100000034C602570100000038C60257FB
:1099C000010000007CC102570100000044C602579C
:1099D000010000003CC602570200000048C60257C2
:1099E0000200000040C60257030000004CC60257A8
:1099F00003000000A0C10257060000006CC102571E
:109A00000700000050C602570800000054C6025765
:109A10000800000058C60257080000005CC6025744
:109A20000800000058C102570B0000005CC102573B
:109A30000B00000060C102570B00000064C1025718
:109A40000B00000068C102570B00000074C10257F0
:109A50000D00000078C102570D00000060C60257DB
:109A60000E00000064C602570F00000068C60257CF
:109A70000F0000006CC602570F00000078C60257A6
:109A80000F00000070C102571200000080C1025791
:109A90001300000084C102571300000088C1025760
:109AA000130000008CC10257130000007CC602574F
:109AB0001700000088C60257170000008CC6025726
:109AC0001700000090C602571700000094C6025706
:109AD0001800000098C60257180000009CC60257E4
:109AE00018000000A0C6025718000000E8C0025786
:109AF0001A000000A4C6025719000000A8C60257A9
:109B00001A000000ACC602571B000000B0C6025786
:109B10001B0000002880EFD04F882A841305F00432
:109B2000EFD02F8A228520806FD0EF87188037C72B
:109B300002578357070981460146A19FF99BA19FC0
:109B40002318F7089F057449040001471305F00422
:109B5000EFD02F809F07385B040083C5F7041305FF
:109B6000F004EFD00F851305F004EFD08F81B7D745
:109B7000025723A00794054723A0E79423A6E79460
:109B800014809307803E3A053355F50237F70257A4
:109B9000231007C2231207C2231407C2231607C2C9
:109BA0009377F50F2318F7C093578500819F231AE9
:109BB000F7C04181231CA7C0231E07C08280B7F6CF
:109BC000025783A506C003A746C083A786C0220705
:109BD0009B07F720BE9533B7E700B3B7F5003E9774
:109BE00083A7C6C0E207BE95B3B7F500BA9786074C
:109BF000139515009BA5B77E828001458280188051
:109C0000EF40D064EF4010660145EF40B05F014582
:109C1000EF4050620945EF4070600945EFF0AFFF3B
:109C200001451480188097100E90E78040498545C3
:109C30002E85EF10A011014597F00D90E780A064EC
:109C4000014514801880014597F00D90E78060422F
:109C500019E50545108017F30D90670083411480C6
:109C6000F1B59F0730EC04008146014794C3D8C387
:109C700017230E906700839528801304F5FF972023
:109C80000E90E7804095253F9F0730EC04009843F5
:109C9000DC439306803E3307E5403335E5009D8D78
:109CA000898DB307D702B385D5023337D702BA956A
:109CB0001F0720EA040008435443232207003E956F
:109CC000B337F500B695BE953D81A1671B25B5223A
:109CD000FD17E98FBD811CC399E16373A400228540
:109CE00097E00D90E7806085B747005723920724DF
:109CF000374700579D472310F72483578724A19F98
:109D0000E5FB231A0720B74700577D572398E72024
:109D100083D78721A19FE5FBB7C702572398071C6C
:109D200037C7025785472316F71C8357871CA19F07
:109D3000E5FB2318071EB7C702577D472396E71E8A
:109D400083D7871EA19FE5FB2480188097D00D90B4
:109D5000E780A07AAA8709453BE207031385E7FF5E
:109D60001480B74700572390A72082800F00F00F80
:109D7000730050100F00F00F0100010001000100FE
:109D8000828001B582808280B746005723920622E6
:109D9000FD572390F622B7C70257239C071E7D4725
:109DA0002392E71E2D46239CC71E2398071C0546B9
:109DB0002396C71C2398C71C2398071E2396E71ECB
:109DC0002398E71E2392060E239A07122394071264
:109DD0002390072082809F07884E04000146984305
:109DE000D6230506A10716A3BB1DF619B7470057D2
:109DF0001D472390E7242392E7247D572398E720EB
:109E0000239AE720B7C702575D472392E71E05470D
:109E10002396E71C2398E71CFD462396D71E23981C
:109E2000D71EB7D602572390E68403D70723219F76
:109E30001377F78F219F2398E722DA3313672700E0
:109E4000DAB3DA3313671700DAB3828037C7025701
:109E50005E33A19FF59BA19F5EB35E3393E717002E
:109E60005EB3B7D70257239007848357072393E73E
:109E700007702318F722828018800145EFF08FFECB
:109E80000145EFF00FDD9F0740EC040081460147DC
:109E900094C3D8C3B7C6025703A7060F83A7460FBC
:109EA0009BA7E7201F0728EA04001CC39F07C25096
:109EB000040013D707012398E60EA19F239AF60EFC
:109EC00010803DA438819F0728EA0400BA23B7C652
:109ED00002570D462398E60E9E230547239AF60E59
:109EE000B717005223A0E7A48946B7070052F4DF52
:109EF000F8DF4547F8DF23A40754B706005703D718
:109F0000C60F31830D8BBB1F370123AEC60E23A0B6
:109F1000E6101307F03CB8C30D4623ACC754130733
:109F2000F07CB8C3216723AAC75493061739F4C33A
:109F300023AEC7541307F739F8C31307100523A43A
:109F4000E7581307300923A4E760056723AAC7561B
:109F5000391723A4E754930600403707005734D736
:109F6000114723A0E75475206D2065201F0440ECA5
:109F700004001C4058409F0438EC0400B307F5402F
:109F800088C0CCC03335F500998D898D0A853EC0D7
:109F90002EC2EFF0EFEF944018405040DC40338782
:109FA000E640B3B6E600918F958F1F0640420F0042
:109FB000B306C70228003337C702B387C702BA9770
:109FC00013D7F6001B27F722BD833AC43EC6EFF035
:109FD000EFC937170052835607F9F577FD17F58F4C
:109FE0002318F7F8835707F9A19F93F7F7CF93E763
:109FF00007102318F7F8835607F98D67D58F2318B4
:10A00000F7F83481BB13C70223AEC60E23A0061097
:10A0100009B775B6B747005703D587248280B7C7FD
:10A02000025703D5871E8280A0420057030000001C
:10A03000A442005703000000A8420057030000009C
:10A04000AC42005702000000B0420057030000007D
:10A05000B442005703000000B8420057030000005C
:10A06000C442005703000000C8420057020000002D
:10A07000D042005702000000D44200570200000006
:10A08000D842005702000000DC42005702000000E6
:10A09000E842005702000000EC42005702000000B6
:10A0A000F842005702000000FC4200570200000086
:10A0B0000043005702000000044300570200000064
:10A0C00008430057020000000C4300570200000044
:10A0D0001043005701000000144300570100000026
:10A0E00018430057010000001C4300570100000006
:10A0F0007315153417A50000130585AD2320150031
:10A10000232225002324350023264500232855003B
:10A11000232A6500232C750040CD04D10CD5F325EE
:10A1200010344CD10C5550D514D958D91CDD232EE0
:10A130000503232015052322250523243505232681
:10A14000450523285505232A6505232C7505232E4F
:10A150008505232095072322A5072324B507232659
:10A16000C5072328D507232AE507232CF507130560
:10A17000C507F32880BC732870BCF32760BC732725
:10A1800050BCF32640BC7326807DF325907DF322DE
:10A1900000300B11F58713050502F32800BC732866
:10A1A00010BCF32720BC732730BCF32600BE7326F7
:10A1B00010BEF325E0BFF322007C0B11F5871305D9
:10A1C0000502F328103073284030F32750307327EE
:10A1D0000034F326103473262034F325003BF32299
:10A1E000103B0B11F58713050502F328203B73285C
:10A1F000303BF327403B7327503BF326603B7326ED
:10A20000703BF325803BF322903B0B11F587130540
:10A210000502F328A03B7328B03BF327C03B73270C
:10A22000D03BF326E03B7326F03BF325003AF322C4
:10A23000103A0B11F587130505027326203AF32512
:10A24000303A0B1035802105130585F59705000080
:10A25000C1052CC9130545F80C5548517315153423
:10A26000828081400142014481440145814501468B
:10A270008146014781470148814801498149014A96
:10A28000814A014B814B014C814C014D814D014E66
:10A29000814E014F814F17A50000130565931305EB
:10A2A000C5070B01F587739088BC731078BC739059
:10A2B00067BC731057BC739046BC7310867D739057
:10A2C000957D73900230130505020B01F58773909D
:10A2D00008BC731018BC739027BC731037BC739004
:10A2E00006BE731016BE7390E5BF7390027C130513
:10A2F00005020B01F5877390183073104830739086
:10A3000057307310073473901634731026347390DB
:10A31000053B7390123B130505020B01F587739003
:10A32000283B7310383B7390473B7310573B739037
:10A33000663B7310763B7390853B7390923B13059D
:10A3400005020B01F5877390A83B7310B83B73901F
:10A35000C73B7310D73B7390E63B7310F63B73908B
:10A36000053A7390123A130505020B0035807310FD
:10A37000263A7390353A17A50000130565858320AA
:10A38000050003214500832185000322C5008322A7
:10A3900005010323450183238501404D04510C55DC
:10A3A0005055145958591C5D0328C50383280504CA
:10A3B0000329450483298504032AC504832A050546
:10A3C000032B4505832B8505032CC505832C05062A
:10A3D000032D4506832D8506032EC506832E05070E
:10A3E000032F4507832F85074851731515340285C0
:10A3F000188185473EC69F0758EC04008843FD56E8
:10A4000070002C00EFC00FFF7DF583478100BB8CEF
:10A41000070189CFBB8D0702BB8F070383458100EE
:10A420001F05AD530400EFC02FEFF1B731209C435F
:10A4300082971145C526DDB79F0748EC040082804E
:10A440003928DD3FDC430145E5B71128F5379C4746
:10A4500001458297E1B72120C537DC47D5BF1145BB
:10A4600085AE28801F0458EC0400054781462286EB
:10A4700095451F053C530400EFC0CFF519C51F05D6
:10A480004953040020806FC02FE9930600601F0627
:10A490006B53040081451F0550520400EFC0BF8478
:10A4A00001E90840EFC00FF61F0572530400D9BF41
:10A4B000F145EFC0FF891145212E0545A12EB7E7D3
:10A4C000040003A707BA83A747BA9F0660EC0400FD
:10A4D00098C2DCC21F05965304006DB7706D5F73A0
:10A4E00079735F7175657565005B706D5F73797306
:10A4F0005D20706D5F737973206372656174652090
:10A500006D61696C206661696C0A00706D5F7379BA
:10A5100073005B706D5F7379735D20706D5F73792D
:10A52000732063726561746520746872656164206C
:10A530006661696C0A005B706D5F7379735D706D45
:10A540005F7379735F656E7472792E0A005B706D4C
:10A550005F7379735D6D61696C2E737461746520CE
:10A560007377697463683A2025640A0058803B7EDB
:10A570001508B5C92E89AA89EFC02FE21F07E82860
:10A5800000200043AA84631EE4022685EFC0AFE1E9
:10A5900081457145EFB0DFC3AA8431C9F146014658
:10A5A000B685EF70BFDD238434011385C4003D20E0
:10A5B000EFC0AFDE5C4089CF44C080C0DCC084C344
:10A5C00001A81C24639A37011305C40001282685BD
:10A5D000EFC06FDD01455480004075B7C1464A8623
:10A5E000B6856F80CFE01F0501000080EDB71F0525
:10A5F00005000080CDB738809F04E8280020804007
:10A6000063149400014501A85C4499E30040CDBF68
:10A610000848829765DD348038809F04E828002050
:10A62000C04063149400014501A85C4899E3404090
:10A63000CDBF084C829765DD34806880BB723502DF
:10A64000BBF1350769C21C46DDCF32842E8AAA8948
:10A650001F09F0280020EFC04FD483270900AA84E7
:10A66000C11713870701631FE9022685EFC0AFD327
:10A670006145B128AA841DC123003501A30045010D
:10A68000B14622861105AD289C44A9CF4840050556
:10A690003D28C8C021E12685EFB01FB31F05050086
:10A6A00000801DA09823631237039833631F47016E
:10A6B0005840C84398C71844D8C754401040892010
:10A6C0002685EFC04FCE014564809C4B51BF81452C
:10A6D0006FB01FB0544010402520D8405C40BA975E
:10A6E00023800700EFC06FCB83274900F9DB138776
:10A6F00004012322E90023A82401DCC898C3D1B7B0
:10A70000B6856F80CFCE1F050100008075BF4880E1
:10A71000BB731502BBF215072E89AA84EFC0EFC7E1
:10A720001F07F0280020004341149307040163141D
:10A73000F700014401A81C20639197021C30639E1E
:10A7400027011104EFC02FC67D5519C41C4489C7C9
:10A750004C4008408297014544800048F1B71F05EE
:10A7600001000080D5BF78809F0440F50400DC40E4
:10A77000B3D7A700858B9DCF03C9940080409F0766
:10A7800028F504009823DB1A2019569483C9840005
:10A790003AA40AA49C472E8A5CC4EFE05FE808C094
:10A7A0009C404CC0D69723A8470163033901014957
:10A7B000A3842401748028801F0428F50400E14646
:10A7C0000146B6852285EF707FBB95477EA0248029
:10A7D000488006843B7E0505AA84EFC00FBC9F0716
:10A7E00028F504003387970014332A8999EA9423C3
:10A7F00081452685850694A3854614B380C7E6A3C4
:10A800009D374A85EFC02FBA014544801F050100DE
:10A810000080E5BF2880BB7A05052A84EFC0EFB72A
:10A820009F0628F50400338786001C3391C79C22BD
:10A83000A3000700FD179CA2EFC0EFB601452480DE
:10A840001F0501000080E5BF38809F0728F5040040
:10A85000982311EFC44B804BEFE07FDC63E9950058
:10A860006394B4006365850030806FF0AFBD05452B
:10A8700034801F0528F5040082809F07A0F504009E
:10A880009C4B91C3828782809F07A0F50400DC5314
:10A8900091C3828782809F07A0F50400DC5791C393
:10A8A0008287828005CD18419F07A0F5040098C3D8
:10A8B0005841D8C3184598C75845D8C7184998CBA8
:10A8C0005849D8CB184D98CF584DD8CF185198D358
:10A8D0005851D8D3185598D75855D8D782808880E2
:10A8E000EFC0AFAB2A8BEFC04FC8B93F01C93922C7
:10A8F000EFC0EFC75A8580806FC0EFAA9F04A0F514
:10A9000004009C44EDD78297AA8A3B69F50BA122EB
:10A910001F04D8F5040008C04CC06F09E011913F36
:10A920001C211EA4B9377E213EA46F09E0109C4073
:10A9300091C30D22DC4491C325283BF21A15DC4853
:10A9400091C3092A65287E2885077EA829221448F4
:10A950005A28212208C839284C48112A4CC86F09A6
:10A96000A00DDC4C91C3FD20DC40D9D3112049B7A8
:10A9700056858287B337F500BA95BE959397050142
:10A9800082809F094CF5040023A00900AD31854762
:10A990001F09D0F504002300F9009C4C91C35D28E9
:10A9A000B9201F0A50F504009B07FA0423A00700F2
:10A9B0009C5491C3452041280345090085471B0746
:10A9C000EA041CC3BB1E05011D201B07FA048947AE
:10A9D0001CC32300F90055351520B5208D471B07F2
:10A9E000EA041CC30145513D7D353D3119A883A7BB
:10A9F00009001387170023A0E900828071B5BB0905
:10AA0000F50291201B07EA0491471CC383A70900A4
:10AA10003B9FF7059C5091C335287E2C85077EAC63
:10AA20001D28144C5A2C152808CCA9374C4C8120D1
:10AA30004CCC6F0960000DBFEFF0CFDD4AA4EFF002
:10AA40000FDE6AA4028903A709009307170023A059
:10AA5000F900828082876FE09FBC1C405040B38722
:10AA6000F640B3B6F600118F158F3E958280417780
:10AA7000C183F98DDD8D8280370700528357C70768
:10AA8000A19FBD9BA19F231EF7068357C707A19FC8
:10AA9000C19BC98F231EF7068357C70793E707019A
:10AAA000231EF706828068809F070C5B04009B874B
:10AAB000A7048043DD28F99BA19F1EA03B9D0504B0
:10AAC000BB1B0504B746005703D6060E6528F18F59
:10AAD000D98F2390F60E83D7460F3967D98F239AE3
:10AAE000F60E5D28A19FF59BA19F2316F740648079
:10AAF0003289AE84BB141504B749005783D6090EBA
:10AB00005120F58FD98F2390F90E83D7490F797A89
:10AB1000B367FA00A19F239AF90EA52883D7090EDF
:10AB20007D1A337AFA002390490FA52003D7090E26
:10AB30009167A92883D7090E21678928B12893E74F
:10AB400027002316F740952093951400B989C59BDB
:10AB5000CD8F1EA09928BD9BA19F1EA0BB6119028D
:10AB6000A920131659001376061E93F7F7E1D18F2B
:10AB70001EA01E2093E707011EA01E2093E71700CA
:10AB80001EA0B5B709679307F7FF8280D98F23907E
:10AB9000F90E79456FE03F88378700578357C740E4
:10ABA00082802120BD9BA19FC1BF1E20A19F8280CA
:10ABB00078803B7E35079F04F4E90400131A1500E2
:10ABC000B387440198236315B7009C33638FC70C88
:10ABD000B2892E892A84EFB05FFCAA8A31E8A120CD
:10ABE000A19FF99BA19F2310F71001455128B7178A
:10ABF0000052BB1A0902239007A44A85B53D2520BF
:10AC000093E717002310F710B3874401238027012F
:10AC1000A3803701568570806FB0FFF805472390F9
:10AC2000E7A40545E1BF3707005783570710828027
:10AC30003B0214043B7B040505473B0C04012285C1
:10AC40008120BB01F9043B0314043B7F0405054745
:10AC50003B1EE4019920D18FA19F2394F6546DB738
:10AC60003B0704051D473B16F406052893C7F7FF6D
:10AC7000F18F2394F654E1B71547C5BF2D47F5B7BB
:10AC80004E86CA850DB53B0404051D473B02F406FC
:10AC9000A5BF1547C1B72D4775BFB70600528547F9
:10ACA00003D68654B397E70082807480FC00005777
:10ACB00054050052580500525C05005288050052A8
:10ACC00008060052740500520F00F00FAA8273901C
:10ACD00002BF0F00F00F828007070706070707076C
:10ACE00007070706000707070707070707070707FC
:10ACF00007070606050606060606030306060606F9
:10AD000006040606060604000006060606050505F6
:10AD100006060606060606060101010606020606E6
:10AD200006060606060606060606060606060606C3
:10AD3000030018809F0708CE04009843DC432A864E
:10AD40003A85BE85EF001011058914803880AA84E9
:10AD50002E84EFB09FE43707005283560770854773
:10AD6000B39797000DC0D58FA19F2310F770B70739
:10AD7000005283D707701F0710CE0400A19F1EA3A7
:10AD800030806FB05FE293C7F7FFF58FF9BFB70769
:10AD9000005203D587708280B707005283D747706F
:10ADA0001F0712CE0400A19F1EA30A2382809307CF
:10ADB000F5FB3BF2071A1365050282809F07E01D31
:10ADC00005009043D8439F052D7F954C1F052DF41A
:10ADD0005158B306B6023307B7023305A60233361D
:10ADE000B6023A9513871600B336D70098C332954A
:10ADF0003695C8C305818280397122CC3724002062
:10AE00003EDA832704CC2ED24C103AD83EC606CE6A
:10AE100032D436D642DC46DE2EC4EF10807EB247F6
:10AE2000032704CC01456384E700EF100010F240D3
:10AE30006244216182809B37A5BE1B95A7BE82809C
:10AE4000AA8798233B070720930677FF3BE5060573
:10AE50003B05072BBB1B072D85468507014509A828
:10AE60008507C5B78146D5BF5B15A00A8507198D33
:10AE70009823130707FDBB6CF70A99E23305A0403E
:10AE800082808146E1BF788A37290020832709CC58
:10AE90002E842AC63ECF2ADCFD578145AA8428008D
:10AEA000B289368ABA8A3EC88D2DD2865687054623
:10AEB000CE852800CD2201C86257B247998F6657C8
:10AEC000BA97A6971CC0FA47032709CC6384E7000A
:10AED000EF10A005748AFD567D5775B71880B70628
:10AEE000008001474D3714802A96630CC5001C2151
:10AEF00098216385E7003385E74082800505850555
:10AF0000EDB7014582802A88AE86B2876302B50418
:10AF1000F958B30816033387A540118F63E4E8009E
:10AF20006FB00FA933C7A5000D8B6374B5042A86D3
:10AF30000DC7B297630DF6006F036000E5BF85068D
:10AF400003C7F6FF0506A30FE6FE028381E7C2866C
:10AF5000368582806FF3BFFEFD17137736007DF7CD
:10AF6000BBE4F7049842F1171106232EE6FE910682
:10AF7000C5BF19EBB305C500369613F73500B30707
:10AF8000D64001EFBBF90704F9D3FD173387F6006C
:10AF900018233306F80018A2C5BFFD15E389C6FAC9
:10AFA0008347F6FF7D169CA1C9BFF1173387F600D2
:10AFB00018433306F80018C2F1B74880AA842E84DB
:10AFC000882011C91C2081CB630EF50005202A8939
:10AFD00029286309A90088201128AA843920898C8E
:10AFE0002685448085040504E1BF08206FB04FAE7C
:10AFF0002A879377370095E314439F07FFFEFEFEF1
:10B00000B69793C6F6FFF58F9F0680808080F58FF8
:10B0100081CF1C2389C70507EDBF1C2381E73305BA
:10B02000A74082800507F1B71107F9B71DC2930643
:10B0300015002A9603C7F6FF9C2119C791C763859F
:10B04000C60085066305F7003305F7408280850555
:10B05000D5B7014582801880EF00D07309E9EF2051
:10B06000E03D9F07E81D05001B85A70414801F0510
:10B07000281E0500E5BFAA8511C51F050035002063
:10B080006F20D07F8280AA8511C51F050035002062
:10B090006F2090768280D8812A84AE893289B68CDE
:10B0A000BA8A3BF205253B9305013526D9471CC1D9
:10B0B00061A844402C54638CB404938514004CC0A4
:10B0C00084203B8CF420938774FF3BEAF70593853B
:10B0D00054FDF599014C99E9938434FD93B414001F
:10B0E000330C9040F1246387B7029D22638B0930B3
:10B0F0003B920910BB890430B52863E935077C54BD
:10B1000063C507005C40FD175CC0A12879BF7D24A2
:10B11000AA8445BF6524AA84D1BF592C6389B7028C
:10B12000052A93E70402BB90177859246384B70279
:10B1300005228920BBEA45107C5463C1072C5C4082
:10B14000630D0900F9175CC001458145D481BD2418
:10B15000AA84C1BFA524AA84E9BFFD175CC0112041
:10B16000E5B78145228555AE638009183B9D390AB4
:10B17000014939A89F0578620400A6958C31828028
:10B180005B99240B130909FD25246385B70AC9209F
:10B19000938704FDBBF3070A9F0798999919E3F178
:10B1A00027FF014A938504FD3BF5150A9F079999EE
:10B1B000991963ED47036317FA009F0799999999C5
:10B1C00063E62703A947B306FA0213C5F5FF330761
:10B1D000F902B337F902B69793D6F54113C6F6FFD5
:10B1E0006366F600639BC7046379E5041F0B78620E
:10B1F0000400B3059B00593763EE35196C5463C5E1
:10B2000005004C40FD154CC0636C5A1D63944A0107
:10B210006368991D93F41C006394041A63120C1A5A
:10B220005D2A5D2A1385FCFFB33C95019385FAFFE7
:10B23000E69529BF6122AA84A1BF3309B700333A3A
